{
  "contractName": "SupplyChain",
  "abi": [
    {
      "inputs": [
        {
          "internalType": "address",
          "name": "_distributor",
          "type": "address"
        },
        {
          "internalType": "address",
          "name": "_pharmacy",
          "type": "address"
        },
        {
          "internalType": "address",
          "name": "_regulator",
          "type": "address"
        }
      ],
      "stateMutability": "nonpayable",
      "type": "constructor"
    },
    {
      "anonymous": false,
      "inputs": [
        {
          "indexed": false,
          "internalType": "uint256",
          "name": "batchId",
          "type": "uint256"
        }
      ],
      "name": "BatchFrozen",
      "type": "event"
    },
    {
      "anonymous": false,
      "inputs": [
        {
          "indexed": false,
          "internalType": "uint256",
          "name": "batchId",
          "type": "uint256"
        },
        {
          "indexed": false,
          "internalType": "string",
          "name": "name",
          "type": "string"
        }
      ],
      "name": "BatchRegistered",
      "type": "event"
    },
    {
      "anonymous": false,
      "inputs": [
        {
          "indexed": false,
          "internalType": "uint256",
          "name": "batchId",
          "type": "uint256"
        },
        {
          "indexed": false,
          "internalType": "enum SupplyChain.Stage",
          "name": "stage",
          "type": "uint8"
        }
      ],
      "name": "StageUpdated",
      "type": "event"
    },
    {
      "anonymous": false,
      "inputs": [
        {
          "indexed": false,
          "internalType": "uint256",
          "name": "batchId",
          "type": "uint256"
        },
        {
          "indexed": false,
          "internalType": "string",
          "name": "reason",
          "type": "string"
        },
        {
          "indexed": false,
          "internalType": "address",
          "name": "actor",
          "type": "address"
        }
      ],
      "name": "Violation",
      "type": "event"
    },
    {
      "inputs": [],
      "name": "MIN_TRANSIT_TIME",
      "outputs": [
        {
          "internalType": "uint256",
          "name": "",
          "type": "uint256"
        }
      ],
      "stateMutability": "view",
      "type": "function",
      "constant": true
    },
    {
      "inputs": [
        {
          "internalType": "uint256",
          "name": "",
          "type": "uint256"
        }
      ],
      "name": "batches",
      "outputs": [
        {
          "internalType": "uint256",
          "name": "batchId",
          "type": "uint256"
        },
        {
          "internalType": "string",
          "name": "name",
          "type": "string"
        },
        {
          "internalType": "address",
          "name": "currentOwner",
          "type": "address"
        },
        {
          "internalType": "enum SupplyChain.Stage",
          "name": "stage",
          "type": "uint8"
        },
        {
          "internalType": "uint256",
          "name": "lastUpdatedTime",
          "type": "uint256"
        },
        {
          "internalType": "bool",
          "name": "frozen",
          "type": "bool"
        }
      ],
      "stateMutability": "view",
      "type": "function",
      "constant": true
    },
    {
      "inputs": [],
      "name": "distributor",
      "outputs": [
        {
          "internalType": "address",
          "name": "",
          "type": "address"
        }
      ],
      "stateMutability": "view",
      "type": "function",
      "constant": true
    },
    {
      "inputs": [],
      "name": "manufacturer",
      "outputs": [
        {
          "internalType": "address",
          "name": "",
          "type": "address"
        }
      ],
      "stateMutability": "view",
      "type": "function",
      "constant": true
    },
    {
      "inputs": [],
      "name": "pharmacy",
      "outputs": [
        {
          "internalType": "address",
          "name": "",
          "type": "address"
        }
      ],
      "stateMutability": "view",
      "type": "function",
      "constant": true
    },
    {
      "inputs": [],
      "name": "regulator",
      "outputs": [
        {
          "internalType": "address",
          "name": "",
          "type": "address"
        }
      ],
      "stateMutability": "view",
      "type": "function",
      "constant": true
    },
    {
      "inputs": [
        {
          "internalType": "uint256",
          "name": "batchId",
          "type": "uint256"
        },
        {
          "internalType": "string",
          "name": "name",
          "type": "string"
        }
      ],
      "name": "registerBatch",
      "outputs": [],
      "stateMutability": "nonpayable",
      "type": "function"
    },
    {
      "inputs": [
        {
          "internalType": "uint256",
          "name": "batchId",
          "type": "uint256"
        },
        {
          "internalType": "enum SupplyChain.Stage",
          "name": "newStage",
          "type": "uint8"
        },
        {
          "internalType": "string",
          "name": "note",
          "type": "string"
        }
      ],
      "name": "updateStage",
      "outputs": [],
      "stateMutability": "nonpayable",
      "type": "function"
    },
    {
      "inputs": [
        {
          "internalType": "uint256",
          "name": "batchId",
          "type": "uint256"
        }
      ],
      "name": "freezeBatch",
      "outputs": [],
      "stateMutability": "nonpayable",
      "type": "function"
    },
    {
      "inputs": [
        {
          "internalType": "uint256",
          "name": "batchId",
          "type": "uint256"
        }
      ],
      "name": "getBatch",
      "outputs": [
        {
          "internalType": "string",
          "name": "",
          "type": "string"
        },
        {
          "internalType": "address",
          "name": "",
          "type": "address"
        },
        {
          "internalType": "enum SupplyChain.Stage",
          "name": "",
          "type": "uint8"
        },
        {
          "internalType": "bool",
          "name": "",
          "type": "bool"
        }
      ],
      "stateMutability": "view",
      "type": "function",
      "constant": true
    },
    {
      "inputs": [
        {
          "internalType": "uint256",
          "name": "batchId",
          "type": "uint256"
        }
      ],
      "name": "getHistoryCount",
      "outputs": [
        {
          "internalType": "uint256",
          "name": "",
          "type": "uint256"
        }
      ],
      "stateMutability": "view",
      "type": "function",
      "constant": true
    },
    {
      "inputs": [
        {
          "internalType": "uint256",
          "name": "batchId",
          "type": "uint256"
        },
        {
          "internalType": "uint256",
          "name": "index",
          "type": "uint256"
        }
      ],
      "name": "getHistory",
      "outputs": [
        {
          "internalType": "enum SupplyChain.Stage",
          "name": "",
          "type": "uint8"
        },
        {
          "internalType": "address",
          "name": "",
          "type": "address"
        },
        {
          "internalType": "uint256",
          "name": "",
          "type": "uint256"
        },
        {
          "internalType": "string",
          "name": "",
          "type": "string"
        }
      ],
      "stateMutability": "view",
      "type": "function",
      "constant": true
    }
  ],
  "bytecode": "0x60806040523480156200001157600080fd5b50604051620025973803806200259783398181016040528101906200003791906200015b565b33600260006101000a81548173ffffffffffffffffffffffffffffffffffffffff021916908373ffffffffffffffffffffffffffffffffffffffff16021790555082600360006101000a81548173ffffffffffffffffffffffffffffffffffffffff021916908373ffffffffffffffffffffffffffffffffffffffff16021790555081600460006101000a81548173ffffffffffffffffffffffffffffffffffffffff021916908373ffffffffffffffffffffffffffffffffffffffff16021790555080600560006101000a81548173ffffffffffffffffffffffffffffffffffffffff021916908373ffffffffffffffffffffffffffffffffffffffff160217905550505050620001ff565b6000815190506200015581620001e5565b92915050565b6000806000606084860312156200017157600080fd5b6000620001818682870162000144565b9350506020620001948682870162000144565b9250506040620001a78682870162000144565b9150509250925092565b6000620001be82620001c5565b9050919050565b600073ffffffffffffffffffffffffffffffffffffffff82169050919050565b620001f081620001b1565b8114620001fc57600080fd5b50565b612388806200020f6000396000f3fe608060405234801561001057600080fd5b50600436106100b45760003560e01c80639933e209116100715780639933e20914610193578063af647b3b146101af578063afa8880e146101cd578063b32c4d8d146101fd578063bfe1092814610232578063dd8fee1414610250576100b4565b806345b8c9a5146100b95780635ac44282146100d7578063624b665c1461010a5780636906679b14610126578063747542821461015957806385b0ef9414610177575b600080fd5b6100c161026e565b6040516100ce9190611fdc565b60405180910390f35b6100f160048036038101906100ec9190611a94565b610274565b6040516101019493929190611e90565b60405180910390f35b610124600480360381019061011f9190611abd565b61045d565b005b610140600480360381019061013b9190611b78565b610c52565b6040516101509493929190611e44565b60405180910390f35b610161610e60565b60405161016e9190611e29565b60405180910390f35b610191600480360381019061018c9190611b24565b610e86565b005b6101ad60048036038101906101a89190611a94565b6112d4565b005b6101b76113cc565b6040516101c49190611e29565b60405180910390f35b6101e760048036038101906101e29190611a94565b6113f2565b6040516101f49190611fdc565b60405180910390f35b61021760048036038101906102129190611a94565b611412565b60405161022996959493929190612050565b60405180910390f35b61023a611510565b6040516102479190611e29565b60405180910390f35b610258611536565b6040516102659190611e29565b60405180910390f35b61012c81565b60606000806000806000808781526020019081526020016000206040518060c0016040529081600082015481526020016001820180546102b390612218565b80601f01602080910402602001604051908101604052809291908181526020018280546102df90612218565b801561032c5780601f106103015761010080835404028352916020019161032c565b820191906000526020600020905b81548152906001019060200180831161030f57829003601f168201915b505050505081526020016002820160009054906101000a900473ffffffffffffffffffffffffffffffffffffffff1673ffffffffffffffffffffffffffffffffffffffff1673ffffffffffffffffffffffffffffffffffffffff1681526020016002820160149054906101000a900460ff1660048111156103d6577f4e487b7100000000000000000000000000000000000000000000000000000000600052602160045260246000fd5b600481111561040e577f4e487b7100000000000000000000000000000000000000000000000000000000600052602160045260246000fd5b8152602001600382015481526020016004820160009054906101000a900460ff16151515158152505090508060200151816040015182606001518360a001519450945094509450509193509193565b8260008082815260200190815260200160002060040160009054906101000a900460ff16156104c1576040517f08c379a00000000000000000000000000000000000000000000000000000000081526004016104b890611fbc565b60405180910390fd5b6000806000868152602001908152602001600020905060008160000154141561051f576040517f08c379a000000000000000000000000000000000000000000000000000000000815260040161051690611f7c565b60405180910390fd5b60016004811115610559577f4e487b7100000000000000000000000000000000000000000000000000000000600052602160045260246000fd5b846004811115610592577f4e487b7100000000000000000000000000000000000000000000000000000000600052602160045260246000fd5b141561062d57600260009054906101000a900473ffffffffffffffffffffffffffffffffffffffff1673ffffffffffffffffffffffffffffffffffffffff163373ffffffffffffffffffffffffffffffffffffffff1614610628576040517f08c379a000000000000000000000000000000000000000000000000000000000815260040161061f90611f5c565b60405180910390fd5b610955565b60026004811115610667577f4e487b7100000000000000000000000000000000000000000000000000000000600052602160045260246000fd5b8460048111156106a0577f4e487b7100000000000000000000000000000000000000000000000000000000600052602160045260246000fd5b141561073b57600360009054906101000a900473ffffffffffffffffffffffffffffffffffffffff1673ffffffffffffffffffffffffffffffffffffffff163373ffffffffffffffffffffffffffffffffffffffff1614610736576040517f08c379a000000000000000000000000000000000000000000000000000000000815260040161072d90611f5c565b60405180910390fd5b610954565b60036004811115610775577f4e487b7100000000000000000000000000000000000000000000000000000000600052602160045260246000fd5b8460048111156107ae577f4e487b7100000000000000000000000000000000000000000000000000000000600052602160045260246000fd5b141561084957600460009054906101000a900473ffffffffffffffffffffffffffffffffffffffff1673ffffffffffffffffffffffffffffffffffffffff163373ffffffffffffffffffffffffffffffffffffffff1614610844576040517f08c379a000000000000000000000000000000000000000000000000000000000815260040161083b90611f5c565b60405180910390fd5b610953565b600480811115610882577f4e487b7100000000000000000000000000000000000000000000000000000000600052602160045260246000fd5b8460048111156108bb577f4e487b7100000000000000000000000000000000000000000000000000000000600052602160045260246000fd5b141561095257600460009054906101000a900473ffffffffffffffffffffffffffffffffffffffff1673ffffffffffffffffffffffffffffffffffffffff163373ffffffffffffffffffffffffffffffffffffffff1614610951576040517f08c379a000000000000000000000000000000000000000000000000000000000815260040161094890611f5c565b60405180910390fd5b5b5b5b5b6109708160020160149054906101000a900460ff168561155c565b6109af576040517f08c379a00000000000000000000000000000000000000000000000000000000081526004016109a690611f1c565b60405180910390fd5b61012c8160030154426109c29190612135565b1015610a03576040517f08c379a00000000000000000000000000000000000000000000000000000000081526004016109fa90611f3c565b60405180910390fd5b838160020160146101000a81548160ff02191690836004811115610a50577f4e487b7100000000000000000000000000000000000000000000000000000000600052602160045260246000fd5b0217905550338160020160006101000a81548173ffffffffffffffffffffffffffffffffffffffff021916908373ffffffffffffffffffffffffffffffffffffffff160217905550428160030181905550600160008681526020019081526020016000206040518060800160405280866004811115610af8577f4e487b7100000000000000000000000000000000000000000000000000000000600052602160045260246000fd5b81526020013373ffffffffffffffffffffffffffffffffffffffff16815260200142815260200185815250908060018154018082558091505060019003906000526020600020906003020160009091909190915060008201518160000160006101000a81548160ff02191690836004811115610b9d577f4e487b7100000000000000000000000000000000000000000000000000000000600052602160045260246000fd5b021790555060208201518160000160016101000a81548173ffffffffffffffffffffffffffffffffffffffff021916908373ffffffffffffffffffffffffffffffffffffffff160217905550604082015181600101556060820151816002019080519060200190610c0f92919061195f565b5050507fe07678ebda9ff268c2c8531bb0ebfc488d9fa7067d919572337a14a72c3aa0b78585604051610c43929190611ff7565b60405180910390a15050505050565b600080600060606000600160008881526020019081526020016000208681548110610ca6577f4e487b7100000000000000000000000000000000000000000000000000000000600052603260045260246000fd5b90600052602060002090600302016040518060800160405290816000820160009054906101000a900460ff166004811115610d0a577f4e487b7100000000000000000000000000000000000000000000000000000000600052602160045260246000fd5b6004811115610d42577f4e487b7100000000000000000000000000000000000000000000000000000000600052602160045260246000fd5b81526020016000820160019054906101000a900473ffffffffffffffffffffffffffffffffffffffff1673ffffffffffffffffffffffffffffffffffffffff1673ffffffffffffffffffffffffffffffffffffffff16815260200160018201548152602001600282018054610db690612218565b80601f0160208091040260200160405190810160405280929190818152602001828054610de290612218565b8015610e2f5780601f10610e0457610100808354040283529160200191610e2f565b820191906000526020600020905b815481529060010190602001808311610e1257829003601f168201915b5050505050815250509050806000015181602001518260400151836060015194509450945094505092959194509250565b600260009054906101000a900473ffffffffffffffffffffffffffffffffffffffff1681565b600260009054906101000a900473ffffffffffffffffffffffffffffffffffffffff1673ffffffffffffffffffffffffffffffffffffffff163373ffffffffffffffffffffffffffffffffffffffff1614610f16576040517f08c379a0000000000000000000000000000000000000000000000000000000008152600401610f0d90611efc565b60405180910390fd5b60008060008481526020019081526020016000206000015414610f6e576040517f08c379a0000000000000000000000000000000000000000000000000000000008152600401610f6590611edc565b60405180910390fd5b6040518060c001604052808381526020018281526020013373ffffffffffffffffffffffffffffffffffffffff16815260200160006004811115610fdb577f4e487b7100000000000000000000000000000000000000000000000000000000600052602160045260246000fd5b81526020014281526020016000151581525060008084815260200190815260200160002060008201518160000155602082015181600101908051906020019061102592919061195f565b5060408201518160020160006101000a81548173ffffffffffffffffffffffffffffffffffffffff021916908373ffffffffffffffffffffffffffffffffffffffff16021790555060608201518160020160146101000a81548160ff021916908360048111156110be577f4e487b7100000000000000000000000000000000000000000000000000000000600052602160045260246000fd5b02179055506080820151816003015560a08201518160040160006101000a81548160ff02191690831515021790555090505060016000838152602001908152602001600020604051806080016040528060006004811115611148577f4e487b7100000000000000000000000000000000000000000000000000000000600052602160045260246000fd5b81526020013373ffffffffffffffffffffffffffffffffffffffff1681526020014281526020016040518060400160405280601081526020017f4261746368205265676973746572656400000000000000000000000000000000815250815250908060018154018082558091505060019003906000526020600020906003020160009091909190915060008201518160000160006101000a81548160ff02191690836004811115611222577f4e487b7100000000000000000000000000000000000000000000000000000000600052602160045260246000fd5b021790555060208201518160000160016101000a81548173ffffffffffffffffffffffffffffffffffffffff021916908373ffffffffffffffffffffffffffffffffffffffff16021790555060408201518160010155606082015181600201908051906020019061129492919061195f565b5050507f6e16cfc87e4ff1ac1ac6b0abb483f134e3c54ea4133affee3870fb1c7e763cd482826040516112c8929190612020565b60405180910390a15050565b600560009054906101000a900473ffffffffffffffffffffffffffffffffffffffff1673ffffffffffffffffffffffffffffffffffffffff163373ffffffffffffffffffffffffffffffffffffffff1614611364576040517f08c379a000000000000000000000000000000000000000000000000000000000815260040161135b90611f9c565b60405180910390fd5b600160008083815260200190815260200160002060040160006101000a81548160ff0219169083151502179055507f57b98a2dcc10698f0ce56286685f2f1fb73d0cfe99d2280af657fb6b84d24b5e816040516113c19190611fdc565b60405180910390a150565b600460009054906101000a900473ffffffffffffffffffffffffffffffffffffffff1681565b600060016000838152602001908152602001600020805490509050919050565b600060205280600052604060002060009150905080600001549080600101805461143b90612218565b80601f016020809104026020016040519081016040528092919081815260200182805461146790612218565b80156114b45780601f10611489576101008083540402835291602001916114b4565b820191906000526020600020905b81548152906001019060200180831161149757829003601f168201915b5050505050908060020160009054906101000a900473ffffffffffffffffffffffffffffffffffffffff16908060020160149054906101000a900460ff16908060030154908060040160009054906101000a900460ff16905086565b600360009054906101000a900473ffffffffffffffffffffffffffffffffffffffff1681565b600560009054906101000a900473ffffffffffffffffffffffffffffffffffffffff1681565b6000806004811115611597577f4e487b7100000000000000000000000000000000000000000000000000000000600052602160045260246000fd5b8360048111156115d0577f4e487b7100000000000000000000000000000000000000000000000000000000600052602160045260246000fd5b14801561164d575060016004811115611612577f4e487b7100000000000000000000000000000000000000000000000000000000600052602160045260246000fd5b82600481111561164b577f4e487b7100000000000000000000000000000000000000000000000000000000600052602160045260246000fd5b145b1561165b5760019050611959565b60016004811115611695577f4e487b7100000000000000000000000000000000000000000000000000000000600052602160045260246000fd5b8360048111156116ce577f4e487b7100000000000000000000000000000000000000000000000000000000600052602160045260246000fd5b14801561174b575060026004811115611710577f4e487b7100000000000000000000000000000000000000000000000000000000600052602160045260246000fd5b826004811115611749577f4e487b7100000000000000000000000000000000000000000000000000000000600052602160045260246000fd5b145b156117595760019050611959565b60026004811115611793577f4e487b7100000000000000000000000000000000000000000000000000000000600052602160045260246000fd5b8360048111156117cc577f4e487b7100000000000000000000000000000000000000000000000000000000600052602160045260246000fd5b14801561184957506003600481111561180e577f4e487b7100000000000000000000000000000000000000000000000000000000600052602160045260246000fd5b826004811115611847577f4e487b7100000000000000000000000000000000000000000000000000000000600052602160045260246000fd5b145b156118575760019050611959565b60036004811115611891577f4e487b7100000000000000000000000000000000000000000000000000000000600052602160045260246000fd5b8360048111156118ca577f4e487b7100000000000000000000000000000000000000000000000000000000600052602160045260246000fd5b148015611946575060048081111561190b577f4e487b7100000000000000000000000000000000000000000000000000000000600052602160045260246000fd5b826004811115611944577f4e487b7100000000000000000000000000000000000000000000000000000000600052602160045260246000fd5b145b156119545760019050611959565b600090505b92915050565b82805461196b90612218565b90600052602060002090601f01602090048101928261198d57600085556119d4565b82601f106119a657805160ff19168380011785556119d4565b828001600101855582156119d4579182015b828111156119d35782518255916020019190600101906119b8565b5b5090506119e191906119e5565b5090565b5b808211156119fe5760008160009055506001016119e6565b5090565b6000611a15611a10846120e9565b6120b8565b905082815260208101848484011115611a2d57600080fd5b611a388482856121d6565b509392505050565b600081359050611a4f8161232b565b92915050565b600082601f830112611a6657600080fd5b8135611a76848260208601611a02565b91505092915050565b600081359050611a8e8161233b565b92915050565b600060208284031215611aa657600080fd5b6000611ab484828501611a7f565b91505092915050565b600080600060608486031215611ad257600080fd5b6000611ae086828701611a7f565b9350506020611af186828701611a40565b925050604084013567ffffffffffffffff811115611b0e57600080fd5b611b1a86828701611a55565b9150509250925092565b60008060408385031215611b3757600080fd5b6000611b4585828601611a7f565b925050602083013567ffffffffffffffff811115611b6257600080fd5b611b6e85828601611a55565b9150509250929050565b60008060408385031215611b8b57600080fd5b6000611b9985828601611a7f565b9250506020611baa85828601611a7f565b9150509250929050565b611bbd81612169565b82525050565b611bcc8161217b565b82525050565b611bdb816121c4565b82525050565b6000611bec82612119565b611bf68185612124565b9350611c068185602086016121e5565b611c0f81612306565b840191505092915050565b6000611c27601483612124565b91507f426174636820616c7265616479206578697374730000000000000000000000006000830152602082019050919050565b6000611c67601983612124565b91507f4f6e6c79204d616e75666163747572657220616c6c6f776564000000000000006000830152602082019050919050565b6000611ca7601a83612124565b91507f496e76616c696420737570706c7920636861696e206f726465720000000000006000830152602082019050919050565b6000611ce7601883612124565b91507f537573706963696f75732066617374206d6f76656d656e7400000000000000006000830152602082019050919050565b6000611d27600d83612124565b91507f496e76616c6964206163746f72000000000000000000000000000000000000006000830152602082019050919050565b6000611d67600f83612124565b91507f4261746368206e6f7420666f756e6400000000000000000000000000000000006000830152602082019050919050565b6000611da7601683612124565b91507f4f6e6c7920526567756c61746f7220616c6c6f776564000000000000000000006000830152602082019050919050565b6000611de7601983612124565b91507f42617463682066726f7a656e20627920726567756c61746f72000000000000006000830152602082019050919050565b611e23816121ba565b82525050565b6000602082019050611e3e6000830184611bb4565b92915050565b6000608082019050611e596000830187611bd2565b611e666020830186611bb4565b611e736040830185611e1a565b8181036060830152611e858184611be1565b905095945050505050565b60006080820190508181036000830152611eaa8187611be1565b9050611eb96020830186611bb4565b611ec66040830185611bd2565b611ed36060830184611bc3565b95945050505050565b60006020820190508181036000830152611ef581611c1a565b9050919050565b60006020820190508181036000830152611f1581611c5a565b9050919050565b60006020820190508181036000830152611f3581611c9a565b9050919050565b60006020820190508181036000830152611f5581611cda565b9050919050565b60006020820190508181036000830152611f7581611d1a565b9050919050565b60006020820190508181036000830152611f9581611d5a565b9050919050565b60006020820190508181036000830152611fb581611d9a565b9050919050565b60006020820190508181036000830152611fd581611dda565b9050919050565b6000602082019050611ff16000830184611e1a565b92915050565b600060408201905061200c6000830185611e1a565b6120196020830184611bd2565b9392505050565b60006040820190506120356000830185611e1a565b81810360208301526120478184611be1565b90509392505050565b600060c0820190506120656000830189611e1a565b81810360208301526120778188611be1565b90506120866040830187611bb4565b6120936060830186611bd2565b6120a06080830185611e1a565b6120ad60a0830184611bc3565b979650505050505050565b6000604051905081810181811067ffffffffffffffff821117156120df576120de6122d7565b5b8060405250919050565b600067ffffffffffffffff821115612104576121036122d7565b5b601f19601f8301169050602081019050919050565b600081519050919050565b600082825260208201905092915050565b6000612140826121ba565b915061214b836121ba565b92508282101561215e5761215d61224a565b5b828203905092915050565b60006121748261219a565b9050919050565b60008115159050919050565b600081905061219582612317565b919050565b600073ffffffffffffffffffffffffffffffffffffffff82169050919050565b6000819050919050565b60006121cf82612187565b9050919050565b82818337600083830152505050565b60005b838110156122035780820151818401526020810190506121e8565b83811115612212576000848401525b50505050565b6000600282049050600182168061223057607f821691505b60208210811415612244576122436122a8565b5b50919050565b7f4e487b7100000000000000000000000000000000000000000000000000000000600052601160045260246000fd5b7f4e487b7100000000000000000000000000000000000000000000000000000000600052602160045260246000fd5b7f4e487b7100000000000000000000000000000000000000000000000000000000600052602260045260246000fd5b7f4e487b7100000000000000000000000000000000000000000000000000000000600052604160045260246000fd5b6000601f19601f8301169050919050565b6005811061232857612327612279565b5b50565b6005811061233857600080fd5b50565b612344816121ba565b811461234f57600080fd5b5056fea26469706673582212201524494db03a009181b3937a172b54160ca1300129f68fde0f94660da573c5ff64736f6c63430008000033",
  "immutableReferences": {},
  "source": "// SPDX-License-Identifier: MIT\r\npragma solidity ^0.8.0;\r\n\r\ncontract SupplyChain {\r\n\r\n    /* ===================== ENUMS ===================== */\r\n\r\n    // Medicine lifecycle stages\r\n    enum Stage {\r\n        Manufactured,\r\n        InTransit,\r\n        AtDistributor,\r\n        AtPharmacy,\r\n        Sold\r\n    }\r\n\r\n    /* ===================== STRUCTS ===================== */\r\n\r\n    // Main batch record\r\n    struct Batch {\r\n        uint batchId;\r\n        string name;\r\n        address currentOwner;\r\n        Stage stage;\r\n        uint lastUpdatedTime;\r\n        bool frozen; // regulator recall / freeze\r\n    }\r\n\r\n    // Event history record\r\n    struct BatchEvent {\r\n        Stage stage;\r\n        address actor;\r\n        uint timestamp;\r\n        string note;\r\n    }\r\n\r\n    /* ===================== STATE VARIABLES ===================== */\r\n\r\n    mapping(uint => Batch) public batches;\r\n    mapping(uint => BatchEvent[]) private history;\r\n\r\n    address public manufacturer;\r\n    address public distributor;\r\n    address public pharmacy;\r\n    address public regulator;\r\n\r\n    uint public constant MIN_TRANSIT_TIME = 5 minutes;\r\n\r\n    /* ===================== EVENTS ===================== */\r\n\r\n    event BatchRegistered(uint batchId, string name);\r\n    event StageUpdated(uint batchId, Stage stage);\r\n    event Violation(uint batchId, string reason, address actor);\r\n    event BatchFrozen(uint batchId);\r\n\r\n    /* ===================== CONSTRUCTOR ===================== */\r\n\r\n    constructor(address _distributor, address _pharmacy, address _regulator) {\r\n        manufacturer = msg.sender;\r\n        distributor = _distributor;\r\n        pharmacy = _pharmacy;\r\n        regulator = _regulator;\r\n    }\r\n\r\n    /* ===================== MODIFIERS ===================== */\r\n\r\n    modifier onlyManufacturer() {\r\n        require(msg.sender == manufacturer, \"Only Manufacturer allowed\");\r\n        _;\r\n    }\r\n\r\n    modifier onlyDistributor() {\r\n        require(msg.sender == distributor, \"Only Distributor allowed\");\r\n        _;\r\n    }\r\n\r\n    modifier onlyPharmacy() {\r\n        require(msg.sender == pharmacy, \"Only Pharmacy allowed\");\r\n        _;\r\n    }\r\n\r\n    modifier onlyRegulator() {\r\n        require(msg.sender == regulator, \"Only Regulator allowed\");\r\n        _;\r\n    }\r\n\r\n    modifier notFrozen(uint batchId) {\r\n        require(!batches[batchId].frozen, \"Batch frozen by regulator\");\r\n        _;\r\n    }\r\n\r\n    /* ===================== INTERNAL RULES ===================== */\r\n\r\n    // Valid supply chain order enforcement\r\n    function isValidTransition(Stage from, Stage to) internal pure returns (bool) {\r\n        if (from == Stage.Manufactured && to == Stage.InTransit) return true;\r\n        if (from == Stage.InTransit && to == Stage.AtDistributor) return true;\r\n        if (from == Stage.AtDistributor && to == Stage.AtPharmacy) return true;\r\n        if (from == Stage.AtPharmacy && to == Stage.Sold) return true;\r\n        return false;\r\n    }\r\n\r\n    /* ===================== CORE FUNCTIONS ===================== */\r\n\r\n    // Register medicine batch (Manufacturer only)\r\n    function registerBatch(uint batchId, string memory name)\r\n        public\r\n        onlyManufacturer\r\n    {\r\n        require(batches[batchId].batchId == 0, \"Batch already exists\");\r\n\r\n        batches[batchId] = Batch(\r\n            batchId,\r\n            name,\r\n            msg.sender,\r\n            Stage.Manufactured,\r\n            block.timestamp,\r\n            false\r\n        );\r\n\r\n        history[batchId].push(\r\n            BatchEvent(Stage.Manufactured, msg.sender, block.timestamp, \"Batch Registered\")\r\n        );\r\n\r\n        emit BatchRegistered(batchId, name);\r\n    }\r\n\r\n    // Update stage with rule checks\r\n    function updateStage(uint batchId, Stage newStage, string memory note)\r\n        public\r\n        notFrozen(batchId)\r\n    {\r\n        Batch storage b = batches[batchId];\r\n        require(b.batchId != 0, \"Batch not found\");\r\n\r\n        // Role enforcement\r\n        if (newStage == Stage.InTransit)\r\n            require(msg.sender == manufacturer, \"Invalid actor\");\r\n        else if (newStage == Stage.AtDistributor)\r\n            require(msg.sender == distributor, \"Invalid actor\");\r\n        else if (newStage == Stage.AtPharmacy)\r\n            require(msg.sender == pharmacy, \"Invalid actor\");\r\n        else if (newStage == Stage.Sold)\r\n            require(msg.sender == pharmacy, \"Invalid actor\");\r\n\r\n        // Supply chain order rule\r\n        require(\r\n            isValidTransition(b.stage, newStage),\r\n            \"Invalid supply chain order\"\r\n        );\r\n\r\n        // Time-based anomaly rule\r\n        require(\r\n            block.timestamp - b.lastUpdatedTime >= MIN_TRANSIT_TIME,\r\n            \"Suspicious fast movement\"\r\n        );\r\n\r\n        // Update state\r\n        b.stage = newStage;\r\n        b.currentOwner = msg.sender;\r\n        b.lastUpdatedTime = block.timestamp;\r\n\r\n        history[batchId].push(\r\n            BatchEvent(newStage, msg.sender, block.timestamp, note)\r\n        );\r\n\r\n        emit StageUpdated(batchId, newStage);\r\n    }\r\n\r\n    /* ===================== REGULATOR FUNCTIONS ===================== */\r\n\r\n    // Freeze / recall unsafe batch\r\n    function freezeBatch(uint batchId) public onlyRegulator {\r\n        batches[batchId].frozen = true;\r\n        emit BatchFrozen(batchId);\r\n    }\r\n\r\n    /* ===================== VIEW FUNCTIONS ===================== */\r\n\r\n    function getBatch(uint batchId)\r\n        public\r\n        view\r\n        returns (string memory, address, Stage, bool)\r\n    {\r\n        Batch memory b = batches[batchId];\r\n        return (b.name, b.currentOwner, b.stage, b.frozen);\r\n    }\r\n\r\n    function getHistoryCount(uint batchId) public view returns (uint) {\r\n        return history[batchId].length;\r\n    }\r\n\r\n    function getHistory(uint batchId, uint index)\r\n        public\r\n        view\r\n        returns (Stage, address, uint, string memory)\r\n    {\r\n        BatchEvent memory e = history[batchId][index];\r\n        return (e.stage, e.actor, e.timestamp, e.note);\r\n    }\r\n}\r\n",
  "sourcePath": "F:\\physical science\\4th year\\IT 4010\\pharma-blockchain\\blockchain\\contracts\\SupplyChain.sol",
  "compiler": {
    "name": "solc",
    "version": "0.8.0+commit.c7dfd78e.Emscripten.clang"
  },
  "schemaVersion": "3.4.16",
  "updatedAt": "2025-12-18T17:25:15.833Z",
  "networkType": "ethereum",
  "devdoc": {
    "kind": "dev",
    "methods": {},
    "version": 1
  },
  "userdoc": {
    "kind": "user",
    "methods": {},
    "version": 1
  }
}